:100000000C9446000C9467000C947E000C946500E0
:100010000C9465000C9465000C9465000C946500CC
:100020000C9465000C9465000C9465000C946500BC
:100030000C9465000C9465000C9465000C946500AC
:100040000C9465000C9465000C9465000C9465009C
:100050000C9465000C9465000C9465000C9465008C
:100060000C9465000C9465000C9465000C9465007C
:100070000C9465000C9465000C9465000C9465006C
:100080000C9465000C9465000C94650011241FBE4F
:10009000CFEFD0E1DEBFCDBF11E0A0E0B1E0E0ECFA
:1000A000F1E000E00BBF02C007900D92AA30B1074B
:1000B000D9F711E0AAE0B1E001C01D92AC30B10760
:1000C000E1F70E9495000C94DE000C9400001F9252
:1000D0000F920FB60F9211248F939F9380910A0174
:1000E00090910B01029790930B0180930A019F91CD
:1000F0008F910F900FBE0F901F9018951F920F9227
:100100000FB60F9211248F939F9380910A019091C3
:100110000B01029690930B0180930A019F918F919E
:100120000F900FBE0F901F9018958FEF8ABB82B96A
:1001300011BA93E099BF9EE090936A0078948BBBCC
:10014000E0910A01F0910B01E050FF4F808183B9EB
:100150002FE936E841E0215030404040E1F700C04F
:10016000000089E090E090930B0180930A012091B8
:100170000A0130910B0137FF04C010920B0110925D
:100180000A0120910A0130910B012A30310524F037
:1001900090930B0180930A01E0910A01F0910B0109
:1001A000E050FF4F208123B92FE936E841E021508C
:1001B00030404040E1F700C00000D9CFF894FFCFB5
:0A01C00077413B6B4D6E7E477F6F69
:00000001FF
