:100000000C9446000C9467000C947B000C946500E3
:100010000C9465000C9465000C9465000C946500CC
:100020000C9465000C9465000C9465000C946500BC
:100030000C9465000C9465000C9465000C946500AC
:100040000C9492000C9465000C9465000C9465006F
:100050000C9465000C9465000C9465000C9465008C
:100060000C9465000C9465000C9465000C9465007C
:100070000C9465000C9465000C9465000C9465006C
:100080000C9465000C9465000C94650011241FBE4F
:10009000CFEFD0E1DEBFCDBF11E0A0E0B1E0E0EDF9
:1000A000F2E000E00BBF02C007900D92AA30B1074A
:1000B000D9F711E0AAE0B1E001C01D92A031B1076B
:1000C000E1F70E94A9000C9466010C9400001F92B5
:1000D0000F920FB60F9211248F939F9381E090E0BF
:1000E00090930B0180930A019F918F910F900FBE07
:1000F0000F901F9018951F920F920FB60F92112418
:100100008F939F9380910C0190910D010196909394
:100110000D0180930C019F918F910F900FBE0F9056
:100120001F9018951F920F920FB60F9211248F9364
:100130009F9380910E0190910F01019690930F0172
:1001400080930E019F918F910F900FBE0F901F9083
:100150001895DF92EF92FF920F931F93CF93DF9347
:100160008FEF82B984BB8ABB11BA93E099BF9FE03D
:1001700090936A0094E093BF91E097BF78948BBB13
:1001800080910001809583B980EF85BBC0E0D0E00D
:1001900020E030E00BE010E0EAE0F0E040E1F42E97
:1001A00040E290E4E92E80E8D82E80910A019091F7
:1001B0000B0181309105F1F480910E0190910F01B6
:1001C000B8010E943F010097A9F480910C0180FDC5
:1001D00002C02F5F3F4F2436310564F02196CC33A7
:1001E000D10534F010920B0110920A01C0E0D0E06A
:1001F00020E030E0C901BF010E943F01DC01A050B6
:10020000BF4F8C91809583B9F5BA83EF91E0019748
:10021000F1F700C00000CB01BF010E943F018050F8
:100220009F4FDC018C91809583B945BB83EF91E0B2
:100230000197F1F700C00000CE01BF010E943F010D
:10024000DC01A050BF4F8C91809583B9E5BAA3EF34
:10025000B1E01197F1F700C00000CB01BF010E948F
:100260003F0180509F4FDC018C91809583B9D5BAB6
:1002700083EF91E00197F1F700C0000096CF97FB64
:10028000092E07260AD077FD04D00CD006D0002016
:100290001AF4709561957F4F0895F6F790958195C2
:1002A0009F4F0895AA1BBB1B51E107C0AA1FBB1F8C
:1002B000A617B70710F0A61BB70B881F991F5A95F2
:1002C000A9F780959095BC01CD010895F894FFCFD2
:0A02D00077413B6B4D6E7E477F6F58
:00000001FF
