:100000000C9446000C9465000C9465000C946500FB
:100010000C9465000C9465000C9465000C946500CC
:100020000C9465000C9465000C9465000C946500BC
:100030000C9465000C9465000C9467000C946500AA
:100040000C9465000C9465000C9465000C9465009C
:100050000C9465000C9465000C9465000C9465008C
:100060000C9465000C9465000C9465000C9465007C
:100070000C9465000C9465000C9465000C9465006C
:100080000C9465000C9465000C94650011241FBE4F
:10009000CFEFD0E1DEBFCDBF11E0A0E0B1E0EEE6F2
:1000A000F2E000E00BBF02C007900D92AA30B1074A
:1000B000D9F711E0AAE0B1E001C01D92AC30B10760
:1000C000E1F70E947E000C9435010C9400001F9211
:1000D0000F920FB60F9211248F939F9380910A0174
:1000E00090910B01019690930B0180930A019F91CF
:1000F0008F910F900FBE0F901F9018952F923F92E7
:100100004F925F926F927F928F929F92AF92BF9227
:10011000CF92DF92EF92FF920F931F93CF93DF93D3
:100120008FEF82B984BB82E08FBD84E08EBD87BF34
:1001300078948091000183B98FE085BB20E030E0A6
:10014000FCE3AF2EB12C0AE010E0E8E58E2EE2E0F1
:100150009E2E7EE3672E712C4FE76FEB362E5FED00
:10016000252EC901B5010E940E01FB01B8010E94B4
:100170000E016B017C01CF01B8010E940E01FC0150
:10018000C901B4010E940E01EB0190E0492E91E0FB
:10019000592E4E0C5F1C80E0E82E81E0F82EEC0C0E
:1001A000FD1CE050FF4FC050DF4FD2018C9183B94E
:1001B00045BB83ED90E30197F1F700C00000D70144
:1001C0008C9183B935BA83ED90E30197F1F700C0C4
:1001D0000000808183B925BAA3EDB0E31197F1F750
:1001E00000C00000888183B9BFEEB5BB87EA91E605
:1001F0000197F1F700C0000080910A0190910B0176
:10020000B3010E940E01009781F62F5F3F4FA7EACE
:10021000B1E61197F1F700C00000A3CF97FB092EBC
:1002200007260AD077FD04D00CD006D000201AF49F
:10023000709561957F4F0895F6F7909581959F4F42
:100240000895AA1BBB1B51E107C0AA1FBB1FA6171D
:10025000B70710F0A61BB70B881F991F5A95A9F76F
:0E02600080959095BC01CD010895F894FFCFD4
:0A026E0077413B6B4D6E7E477F6FBA
:00000001FF
