:100000000C9446000C9467000C9465000C946500F9
:100010000C9465000C9465000C9465000C946500CC
:100020000C9465000C9465000C9465000C946500BC
:100030000C9465000C9465000C9465000C946500AC
:100040000C9465000C9465000C9465000C9465009C
:100050000C9465000C9465000C9465000C9465008C
:100060000C9465000C9465000C9465000C9465007C
:100070000C9465000C9465000C9465000C9465006C
:100080000C9465000C9465000C94650011241FBE4F
:10009000CFEFD0E1DEBFCDBF11E0A0E0B1E0EEE7F1
:1000A000F2E000E00BBF02C007900D92AA30B1074A
:1000B000D9F711E0AAE0B1E001C01D92AC30B10760
:1000C000E1F70E947B000C943D010C9400001F920C
:1000D0000F920FB60F9211248F939F9381E090E0BF
:1000E00090930B0180930A019F918F910F900FBE07
:1000F0000F901F9018957F928F929F92AF92BF9210
:10010000CF92DF92EF92FF920F931F93CF93DF93E3
:100110008FEF82B984BB8ABB11BA91E099BF93E09B
:1001200090936A0078948BBB8091000183B98FE033
:1001300085BBE1E0F0E02EE130E0CAE0D0E05EEB2C
:10014000B52E4EE7A42E9EEE992E8EED882E7724A6
:100150007394C901BE010E9416017C01CB01BE014E
:100160000E9416018C01CF01BE010E9416016C0194
:10017000CB01BE010E94160140E051E0E40EF51EE5
:10018000040F151FB601640F751F840F951FD7014B
:100190004C9143B9B5BAA3ECB9E01197F1F700C09F
:1001A0000000D8014C9143B9A5BAA3ECB9E011976E
:1001B000F1F700C00000DB014C9143B995BAA3EC04
:1001C000B9E01197F1F700C00000DC014C9143B990
:1001D00085BAA3ECB9E01197F1F700C00000409197
:1001E0000A0150910B014130510589F621503040F0
:1001F00037FF03C031972BE330E0F7FD11C0211525
:10020000310521F4309761F0E1E0F0E08FE39DE00B
:10021000A3E081509040A040E1F700C0000099CFDA
:1002200075BAE0E0F0E020E030E0F0CF97FB092E77
:1002300007260AD077FD04D00CD006D000201AF48F
:10024000709561957F4F0895F6F7909581959F4F32
:100250000895AA1BBB1B51E107C0AA1FBB1FA6170D
:10026000B70710F0A61BB70B881F991F5A95A9F75F
:0E02700080959095BC01CD010895F894FFCFC4
:0A027E0077413B5B4D5E7C437F4FF0
:00000001FF
