:100000000C9446000C9465000C9465000C946500FB
:100010000C9465000C9465000C9465000C946500CC
:100020000C9465000C9465000C9465000C946500BC
:100030000C9465000C9465000C9467000C946500AA
:100040000C9465000C9465000C9465000C9465009C
:100050000C9465000C9465000C9465000C9465008C
:100060000C9465000C9465000C9465000C9465007C
:100070000C9465000C9465000C9465000C9465006C
:100080000C9465000C9465000C94650011241FBE4F
:10009000CFEFD0E1DEBFCDBF11E0A0E0B1E0E8E7F7
:1000A000F2E000E00BBF02C007900D92AA30B1074A
:1000B000D9F711E0AAE0B1E001C01D92A031B1076B
:1000C000E1F70E947E000C943A010C9400001F920C
:1000D0000F920FB60F9211248F939F9380910E0170
:1000E00090910F01019690930F0180930E019F91C3
:1000F0008F910F900FBE0F901F9018952F923F92E7
:100100004F925F926F927F928F929F92AF92BF9227
:10011000CF92DF92EF92FF920F931F93CF93DF93D3
:100120008FEF82B984BB82E08FBD84E08EBD87BF34
:10013000789480910001809583B980EF85BB20E0A1
:1001400030E0FCE3AF2EB12C0AE010E0E8E58E2EA3
:10015000E2E09E2E7EE3672E712C40E860E4362EAE
:1001600050E2252EC901B5010E941301FB01B8011F
:100170000E9413016B017C01CF01B8010E941301A1
:10018000FC01C901B4010E941301EB0190E0492E6A
:1001900091E0592E4E0C5F1C80E0E82E81E0F82E95
:1001A000EC0CFD1CE050FF4FC050DF4FD2018C9192
:1001B000809583B945BB83ED90E30197F1F700C0CB
:1001C0000000D7018C91809583B935BA83ED90E317
:1001D0000197F1F700C000008081809583B925BAAE
:1001E000A3EDB0E31197F1F700C00000888180957E
:1001F00083B9B0E1B5BB87EA91E60197F1F700C09A
:10020000000080910E0190910F01B3010E94130133
:10021000009761F62F5F3F4FA7EAB1E61197F1F71C
:1002200000C000009FCF97FB092E07260AD077FD5C
:1002300004D00CD006D000201AF4709561957F4F41
:100240000895F6F7909581959F4F0895AA1BBB1BC3
:1002500051E107C0AA1FBB1FA617B70710F0A61BC6
:10026000B70B881F991F5A95A9F780959095BC01E7
:08027000CD010895F894FFCFC1
:0A02780077413B6B4D6E7E477F6FB0
:00000001FF
